:020000040800F2
:100000005804002001010008EF020008E702000880
:10001000EB02000849010008D50A000800000000B2
:10002000000000000000000000000000CB060008F7
:100030004D0100080000000061030008B50700083A
:100040001B0100081B0100081B0100081B01000820
:100050001B0100081B0100081B0100081B01000810
:100060001B0100081B0100081B0100081B01000800
:100070001B0100081B0100081B0100081B010008F0
:100080001B0100081B0100081B0100081B010008E0
:100090001B0100081B0100081B0100081B010008D0
:1000A0001B0100081B0100081B0100081B010008C0
:1000B0001B0100081B0100081B0100081B010008B0
:1000C0001B0100081B0100081B0100081B010008A0
:1000D000F90400081B0100081B010008B90800080A
:1000E0001B0100081B0100081B010008DFF80CD0F1
:1000F00000F018F800480047F90A000858040020EA
:100100000648804706480047FEE7FEE7FEE7FEE7B1
:10011000FEE7FEE7FEE7FEE7FEE7FEE7B9070008B9
:10012000ED000008064C074D06E0E06840F00103D2
:1001300094E8070098471034AC42F6D3FFF7DAFF93
:10014000700B0008900B000800BFFEE770470146E7
:1001500042F6E06201FB02F000E0401E0028FCD104
:100160007047000010B501211D2000F00BF94FF47D
:1001700000500D490880032088701020C8700B487B
:1001800000F018F8202008490880032088704820D3
:10019000C870074800F00EF800224FF400510448E0
:1001A00000F09CF810BD0000140000200010014079
:1001B000000C01402DE9F0410246002500260020F8
:1001C00000230024002791F803C00CF00F0591F8DC
:1001D00003C00CF0100CBCF1000F03D091F802C06A
:1001E0004CEA050591F800C0BCF1000F31D014684D
:1001F00000202BE04FF0010C0CFA00F3B1F800C026
:100200000CEA03069E4220D183004FF00F0C0CFA3B
:1002100003F7BC4305FA03FC4CEA040491F803C05D
:10022000BCF1280F06D14FF0010C0CFA00FCC2F80B
:1002300014C00AE091F803C0BCF1480F05D14FF09B
:10024000010C0CFA00FCC2F810C0401C0828D1D3E5
:100250001460B1F800C0BCF1FF0F34DD5468002019
:100260002EE000F1080C4FF0010808FA0CF3B1F889
:1002700000C00CEA03069E4221D183004FF00F0C10
:100280000CFA03F7BC4305FA03FC4CEA040491F8AA
:1002900003C0BCF1280F05D100F1080C08FA0CF8D6
:1002A000C2F8148091F803C0BCF1480F07D100F1E7
:1002B000080C4FF0010808FA0CF8C2F81080401C36
:1002C0000828CED35460BDE8F08102460020936830
:1002D0000B400BB1012000E0002070470AB1016122
:1002E00000E04161704700BFFEE700BFFEE77047D6
:1002F00070B5002100230F22C47804B3154C246884
:1003000004F4E064C4F5E064210AC1F10403CA40C6
:10031000447804FA03F184781440214309010E4C17
:100320000678A155047804F01F050124AC40057837
:100330006D11AD0005F1E025C5F8004109E0047834
:1003400004F01F050124AC40044D0678761145F8F1
:10035000264070BD0CED00E000E400E080E100E02C
:100360007047000029B1064AD2690243044BDA61A2
:1003700004E0034AD2698243014BDA61704700000E
:100380000010024029B1064A92690243044B9A6167
:1003900004E0034A92698243014B9A61704700006E
:1003A0000010024030B500210022002400232D4D12
:1003B0006D6805F00C0121B1042905D0082923D16D
:1003C00005E0294D056022E0274D05601FE0254D21
:1003D0006D6805F47012234D6D6805F480340225B4
:1003E00005EB92421CB9214D554305600BE01D4DB4
:1003F0006D6805F400351DB11C4D5543056002E0E4
:10040000194D5543056002E0174D056000BF00BF60
:10041000144D6D6805F0F0010909154D6B5C056818
:10042000DD4045600F4D6D6805F4E061090A104D2F
:100430006B5C4568DD4085600A4D6D6805F4605170
:10044000C90A0B4D6B5C4568DD40C560054D6D68A4
:1004500005F44041890B074D6B5CC568B5FBF3F5AE
:10046000056130BD0010024000127A0000093D0015
:10047000000000201000002010B5012141F204000E
:10048000FFF780FFA02018490880032088701820FB
:10049000C8701648FFF78EFE4020134908800420DC
:1004A000C8701248FFF786FE10200F490880C870F8
:1004B0000E48FFF77FFE00200D4908804FF4827040
:1004C000488000208880C88001200881400248813F
:1004D000102088818020C881064800F0D8F80121CA
:1004E000044800F08DF810BD140000200008014001
:1004F000300000200030014070B560210F4800F04E
:1005000097F8D0B10D4800F0BDF80446442C10D146
:100510004FF400510A48FFF7D8FE80F001052A4643
:100520004FF400510648FFF7D9FE06A1064800F037
:10053000C4FA6021014800F06FF870BD0038004037
:10054000001001406F6B0A000048004010B5012107
:100550008803FFF707FF01210820FFF713FF4FF47F
:10056000804022490880032088701820C8702048E5
:10057000FFF720FE4FF420401C49088003208870BC
:100580000420C8701A48FFF715FE4FF48050174931
:100590000880032088701020C8701548FFF70AFEF5
:1005A00000201449088048808880C8800120088184
:1005B00040024881082088818020C8810E4800F0D0
:1005C00066F8002260210C4800F04CF801210A482E
:1005D00000F016F82420094908700020487088703F
:1005E0000120C8700846FFF783FE10BD14000020EC
:1005F000000C0140300000200038004018000020AE
:1006000021B1028842F04002028004E002884FF6E5
:10061000BF731A4002807047CA4302817047024686
:10062000002013890B400BB1012000E0002070472F
:10063000F0B50246002000240023002501F00F073A
:100640000126BE40B4B20B1101269E40B3B296887B
:1006500006EA03051689264016B10DB1012000E017
:100660000020F0BD30B5002400230C110125A54069
:10067000ABB21AB185881D43858002E085889D4311
:10068000858030BD0146888970478181704710B5EB
:100690000022028802F441520B884C8823438C8844
:1006A0002343CC8823430C8923434C8923438C89DF
:1006B0002343CC8923431A430280838B4FF2FF7478
:1006C000234083830B8A038210BD704710B500F06E
:1006D00001F810BD0CB5002001900090334800686F
:1006E00040F480303149086000BF3048006800F4B1
:1006F000003000900198401C0190009818B90198B2
:10070000B0F5A06FF1D12948006800F4003010B1B5
:100710000120009001E0002000900098012843D1C2
:100720002348006840F0100021490860084600682E
:1007300020F0030008600846006840F002000860EE
:100740001A484068194948600846406848600846A9
:10075000406840F4806048600846406820F47C109F
:1007600048600846406840F4E81048600846006861
:1007700040F08070086000BF0C48006800F0007016
:100780000028F9D00948406820F003000749486074
:100790000846406840F00200486000BF03484068D7
:1007A00000F00C000828F9D10CBD00000010024038
:1007B000002002407047000010B51348006840F068
:1007C00001001149086008464068104908400E4978
:1007D0004860084600680E4908400B490860084612
:1007E000006820F4802008600846406820F4FE007D
:1007F00048604FF41F008860FFF768FF4FF000600B
:100800000449086010BD0000001002400000FFF81D
:10081000FFFFF6FE08ED00E010B501210820FFF70C
:10082000B1FD01218804FFF79DFD4FF480601D4953
:1008300008801820C870032088701B48FFF7BAFC96
:100840004FF40060174908800420C8701648FFF76D
:10085000B1FC4FF416501549086000208880C8800C
:10086000088188810C204881114800F0ADF82720CC
:10087000104908700020887048700120C870084630
:10088000FFF736FD40F22551094800F039F8012202
:1008900040F22551064800F072F80121044800F0AA
:1008A00038F810BD14000020000C01404400002066
:1008B000004800401800002010B540F225510D48B6
:1008C00000F033F8A8B10B4800F0EAF80446432CD6
:1008D0000FD1012260210848FFF7C4FE00BF0221AA
:1008E0000648FFF79CFE0028F9D044210348FFF793
:1008F000CCFE10BD004800400038004000300140F0
:1009000001F40072B2F5007F00D100BFCA4302803B
:10091000704721B1828942F40052828104E08289C9
:100920004DF6FF731A408281704770B5024600246D
:1009300000230025002040F66A16B14200D100BF16
:10094000C1F3421501F01F03012606FA03F3012D3E
:1009500002D19689334006E0022D02D1168A334037
:1009600001E0968A33400C12012606FA04F4168838
:10097000344013B10CB1012000E0002070BDF0B58F
:100980000346002400260025002040F66A17B942DD
:1009900000D100BF1846C1F3421401F01F06012721
:1009A00007FA06F5012C01D10C3004E0022C01D12C
:1009B000103000E014301AB107682F43076002E0DE
:1009C0000768AF430760F0BD2DE9F04786B00546E4
:1009D0000E460024A24600BFA1460027B08900B100
:1009E00000BF2F462C8A4CF6FF700440F088044369
:1009F0002C82AC894EF6F3100440B088318908434C
:100A0000718908430443AC81AC8A4FF6FF4004402F
:100A1000B0890443AC8201A8FFF7C4FC1F48874299
:100A200002D1DDF810A001E0DDF80CA0A88900F4E7
:100A3000004040B10AEBCA0000EB0A1031684900DF
:100A4000B0FBF1F807E00AEBCA0000EB0A103168CE
:100A50008900B0FBF1F86420B8FBF0F00401200934
:100A6000642101FB1089A88900F4004040B13220C4
:100A700000EBC900B0FBF1F000F00700044308E010
:100A8000322000EB09106421B0FBF1F000F00F0000
:100A900004432C8106B0BDE8F08700000038014017
:100AA00001468888C0F30800704700BF028802F042
:100AB0008002002AFAD08180704710B504460B46A8
:100AC00004E019782046FFF7F0FF5B1C1878002837
:100AD000F7D110BD00BFFEE702E008C8121F08C131
:100AE000002AFAD170477047002001E001C1121FAF
:100AF000002AFBD1704700001A4800684FF47A7250
:100B0000B0FBF2F1B1F1807F00D31DE021F07F4016
:100B1000401E4FF0E022506150170F22002807DAE4
:100B200013071D0E104B00F00F04241F1D5503E08A
:100B300013071C0E0D4B1C5400BF00204FF0E02289
:100B400090610720106100BFFFF70CFBFFF794FCDA
:100B5000FFF7FCFC0A20FFF7FAFAFFF75DFE00BF83
:100B6000FEE700001C00002018ED00E000E400E0BB
:100B7000900B00080000002030000000D80A000898
:100B8000C00B00083000002028040000E80A00081C
:100B90000000000001020304010203040607080923
:100BA00002040608000000000000000000A24A0441
:100BB000000000000000000001020304060708090D
:04000005080000ED02
:00000001FF
