:020000040800F2
:1000000020040020010100089D020008950200085C
:10001000990200084901000871050008000000006D
:1000200000000000000000000000000021040008A3
:100030004D010008000000009F0200080D050008A7
:100040001B0100081B0100081B0100081B01000820
:100050001B0100081B0100081B0100081B01000810
:100060001B0100081B0100081B0100081B01000800
:100070001B0100081B0100081B0100081B010008F0
:100080001B0100081B0100081B0100081B010008E0
:100090001B0100081B0100081B0100081B010008D0
:1000A0001B0100081B0100081B0100081B010008C0
:1000B0001B0100081B0100081B0100081B010008B0
:1000C0001B0100081B0100081B0100081B010008A0
:1000D000450300081B0100081B0100081B01000864
:1000E0001B0100081B0100081B010008DFF80CD0F1
:1000F00000F018F80048004795050008200400208B
:100100000648804706480047FEE7FEE7FEE7FEE7B1
:10011000FEE7FEE7FEE7FEE7FEE7FEE71105000863
:10012000ED000008064C074D06E0E06840F00103D2
:1001300094E8070098471034AC42F6D3FFF7DAFF93
:10014000B8050008D805000800BFFEE77047014663
:1001500042F6E06201FB02F000E0401E0028FCD104
:1001600070472DE9F04102460025002600200023BB
:100170000024002791F803C00CF00F0591F803C08C
:100180000CF0100CBCF1000F03D091F802C04CEA47
:10019000050591F800C0BCF1000F31D014680020B3
:1001A0002BE04FF0010C0CFA00F3B1F800C00CEAA0
:1001B00003069E4220D183004FF00F0C0CFA03F788
:1001C000BC4305FA03FC4CEA040491F803C0BCF1FB
:1001D000280F06D14FF0010C0CFA00FCC2F814C035
:1001E0000AE091F803C0BCF1480F05D14FF0010CB3
:1001F0000CFA00FCC2F810C0401C0828D1D31460CF
:10020000B1F800C0BCF1FF0F34DD546800202EE0CF
:1002100000F1080C4FF0010808FA0CF3B1F800C027
:100220000CEA03069E4221D183004FF00F0C0CFA1A
:1002300003F7BC4305FA03FC4CEA040491F803C03D
:10024000BCF1280F05D100F1080C08FA0CF8C2F82F
:10025000148091F803C0BCF1480F07D100F1080CDD
:100260004FF0010808FA0CF8C2F81080401C08286A
:10027000CED35460BDE8F0810246002093680B4065
:100280000BB1012000E0002070470AB1016100E0DD
:100290004161704700BFFEE700BFFEE7704770474F
:1002A00029B1064A92690243044B9A6104E0034A69
:1002B00092698243014B9A6170470000001002402E
:1002C00010B5012141F20400FFF7EAFFA02019490F
:1002D0000880032088701820C8701748FFF741FF76
:1002E0004020144908800420C8701348FFF739FFE4
:1002F000102010490880C8700F48FFF732FF002017
:100300000E4908804FF48270488000208880C880A1
:100310004FF400704881102088810020C881072098
:100320000882074800F05EF80121054800F02CF82B
:1003300010BD00000000002000080140080000205F
:100340000030014070B560210D4800F02CF890B1EC
:100350000B4800F042F80446612C0CD14FF40051D8
:100360000848FFF789FF80F001052A464FF4005145
:100370000448FFF78AFF6021014800F011F870BDC2
:10038000003800400010014021B1028842F04002D4
:10039000028004E002884FF6BF731A400280704763
:1003A000CA4302817047F0B50246002000240023B2
:1003B000002501F00F070126BE40B4B20B11012643
:1003C0009E40B3B2968806EA03051689264016B108
:1003D0000DB1012000E00020F0BD01468889704782
:1003E0008181704710B50022028802F441520B88C7
:1003F0004C8823438C882343CC8823430C89234394
:100400004C8923438C892343CC8923431A4302809C
:10041000838B4FF2FF74234083830B8A038210BDCA
:10042000704710B500F002F810BD00000CB50020B8
:10043000019000903348006840F4803031490860F2
:1004400000BF3048006800F4003000900198401C64
:100450000190009818B90198B0F5A06FF1D1294822
:10046000006800F4003010B10120009001E000208D
:1004700000900098012843D12348006840F0100004
:10048000214908600846006820F00300086008461B
:10049000006840F0020008601A4840681949486046
:1004A0000846406848600846406840F480604860FC
:1004B0000846406820F47C1048600846406840F4D4
:1004C000E81048600846006840F08070086000BF8F
:1004D0000C48006800F000700028F9D00948406816
:1004E00020F00300074948600846406840F00200D9
:1004F000486000BF0348406800F00C000828F9D1AC
:100500000CBD0000001002400020024070470000B7
:1005100010B51348006840F0010011490860084612
:100520004068104908400E494860084600680E4976
:1005300008400B4908600846006820F480200860E5
:100540000846406820F4FE0048604FF41F008860B1
:10055000FFF767FF4FF000600449086010BD00001E
:10056000001002400000FFF8FFFFF6FE08ED00E07B
:1005700000BFFEE702E008C8121F08C1002AFAD136
:1005800070477047002001E001C1121F002AFBD113
:1005900070470000FFF794FE0A20FFF7D8FD07E040
:1005A00000210448FFF71CFF4FF47A70FFF7CFFDDE
:1005B000F6E7000000300140D805000800000020E8
:1005C0000800000074050008E0050008080000208D
:1005D000180400008405000800000000000000006E
:04000005080000ED02
:00000001FF
